:020000040800F2
:10000000000001204D3100087930000881300008DF
:100010008930000891300008993000080000000085
:10002000000000000000000000000000016D00085A
:10003000A130000800000000E16E0008296F0008F0
:100040009531000895310008953100089531000878
:100050009531000895310008953100089531000868
:100060009531000895310008953100089531000858
:100070009531000895310008953100089531000848
:10008000AD30000895310008953100089531000821
:100090009531000895310008953100089531000828
:1000A00095310008C13000089531000895310008ED
:1000B0009531000895310008953100089531000808
:1000C00095310008953100089531000895310008F8
:1000D00095310008953100089531000895310008E8
:1000E00095310008953100089531000895310008D8
:1000F00095310008953100089531000895310008C8
:1001000095310008953100089531000895310008B7
:1001100095310008953100089531000895310008A7
:100120009531000895310008953100089531000897
:1001300000000000000000000000000000000000BF
:1001400000000000000000000000000000000000AF
:10015000000000000000000000000000000000009F
:10016000000000000000000000000000000000008F
:10017000000000000000000000000000000000007F
:10018000000000000000000000000000000000006F
:10019000000000000000000000000000000000005F
:1001A000000000000000000000000000000000004F
:1001B000000000000000000000000000000000003F
:1001C000000000000000000000000000000000002F
:1001D000000000000000000000000000000000001F
:0401E0005FF8E0F1F3
:1001F00010B5054C237833B9044B13B10448AFF361
:1002000000800123237010BD0004002000000000C6
:10021000147F000808B5034B1BB103490348AFF333
:10022000008008BD0000000004040020147F0008C6
:1002300010F8012B11F8013B012A28BF9A42F7D090
:10024000D01A7047034613F8012B002AFBD1181A65
:100250000138704780B400AFBFF34F8F00BF064B2B
:10026000DB6803F4E0620449044B1343CB60BFF343
:100270004F8F00BF00BFFDE700ED00E00400FA056E
:1002800080B584B000AF78600B46FB70FB78FB73E1
:1002900007F10F014FF0FF330122034804F03AFE4B
:1002A00000BF1037BD4680BDE007002080B586B096
:1002B00000AFF860B9607A6000237B6105E078697F
:1002C00002F0ECF87B6901337B617B69082BF6DD7A
:1002D00000BF00BF1837BD4680BD80B584B000AFF9
:1002E00078607868FFF7AEFF0346092B01D0002342
:1002F00019E00023FB6012E0FB687A6813441B7866
:10030000FB72FB7A302B07D0FB7A312B04D0FB7ABF
:10031000322B01D0002306E0FB680133FB60FB6851
:10032000082BE9DD012318461037BD4680BD80B596
:1003300084B000AF786039607868FFF7CEFF03467D
:1003400083F00103DBB2002B01D000232EE03B68D9
:10035000002B2AD03B6800221A600023FB6021E0BA
:10036000FB687A6813441B78312B02D0322B0BD0F8
:1003700015E03B681B68FA685200012101FA02F29D
:100380001A433B681A600AE03B681B68FA6852002F
:10039000022101FA02F21A433B681A6000BFFB68AF
:1003A0000133FB60FB68082BDADD012318461037A8
:1003B000BD4680BD80B584B000AF78607868FFF737
:1003C00041FFB860BB68002B01D1002321E000236E
:1003D000FB6010E0FB687A6813441B782F2B05D96B
:1003E000FB687A6813441B78392B01D9002310E08D
:1003F000FB680133FB60FB68BA689A42EAD87B6805
:100400001B78302B04D1BB68012B01D9002300E0FD
:10041000012318461037BD4680BD000080B594B05A
:1004200002AFF860B9607A60B86800F005FC034676
:1004300087F8433097F84330062B03D0574801F034
:1004400075FCA8E00121B86800F0C0FBF863F86B08
:10045000FFF7F8FE0346022B11D1FB6B1B78302B04
:100460000DD9FB6B1B78392B09D8FB6B01331B783B
:10047000612B08D0FB6B01331B78622B03D04848FB
:1004800001F054FC87E0FB6B1B78313BBB63FB6BDB
:1004900001331B78612B14BF01230023DBB27B6384
:1004A00002237B6426E07B6C9BB21946B86800F09F
:1004B0008DFBF8637B6C023B07F118029B00134431
:1004C0001946F86BFFF733FF034683F00103DBB2F5
:1004D000002B0CD0FB6B00937B6C324A4FF4807185
:1004E000314807F07DF8304801F020FC53E07B6C88
:1004F00001337B647B6C052BD5DD04233B634FF418
:100500006163FB620621B86800F060FBF863F86B7A
:10051000FFF750FF034683F00103DBB2002B03D04B
:10052000224801F003FC36E0F86BFFF78BFE024631
:100530003B6B9A4203D91E4801F0F8FB2BE00A22DC
:100540000021F86B07F042F8B862BB6AFA6A9A4277
:1005500003D2174801F0EAFB1DE0BB6A7B617B6BAD
:10056000002B0AD107F1140207F1180100230093B0
:100570000023B86B02F020F80AE007F1180207F137
:1005800014030093134600220021B86B02F014F804
:10059000B86B01F083FF4837BD4680BD4C7F000833
:1005A000807F0008A47F00081C040020C87F00088A
:1005B000F07F000880B584B000AFF860B9607A6061
:1005C00002F09CF900BF1037BD4680BD80B584B0F5
:1005D00000AFF860B9607A60FFF73CFEB0B588B054
:1005E00002AF786000F08CF803463D4A13603C4B44
:1005F0001B68184600F0D4F803463A4A1360394B9A
:100600001B68394A1A60374B1C68384B6D4603F13A
:100610000C0292E8030085E803000ECB204600F0B0
:100620002FFA304B1C68324B6D4603F10C0292E8F6
:10063000030085E803000ECB204600F021FA294B89
:100640001C682C4B6D4603F10C0292E8030085E810
:1006500003000ECB204600F013FA224B1C68264BF9
:100660006D4603F10C0292E8030085E803000ECB0F
:10067000204600F005FA4FF4FA7005F07DFD194BA5
:100680001B680821184600F048F9164B1B681846ED
:1006900000F066F907F10F010A230122174804F060
:1006A000BCFC0346FB75FB7D002B0BD10D4B1B687F
:1006B000FA7B1146184600F030F90A4B1B681846C1
:1006C00000F04EF901F088FE38613B69002B02DB37
:1006D000386902F0B1F80A2005F04EFDDAE700BFF4
:1006E0001C050020200500208102000828000020B1
:1006F00000000020140000203C000020E007002043
:1007000080B400AF0E4B40229A800D4B4022DA801D
:100710000B4B80221A810A4B0022DA60084B002220
:100720001A82074B08225A81054B00229A74044B07
:10073000044A1A60024B1846BD4680BC704700BF91
:10074000240500206C81000880B485B000AF78607B
:100750007B685B8901221344FB817B689B880333A0
:100760009A087B68DB8803339B081A447B681B89E3
:1007700003339B08D118FA8913469B0013449B004E
:1007800003339B08CA18FB8903339B0813441233B5
:100790009BB29B009BB218461437BD4680BC704785
:1007A00080B588B000AF78600023BB617B685B894F
:1007B00001221344FB827868FFF7C6FF03463B61C2
:1007C0000023FB777B68DB68002B0FD1386906F0CC
:1007D000CDFD03461A467B68DA607B68DB68002B38
:1007E00001D1002395E00123FB7707E07B681B8A9A
:1007F0001A463B69934201D900238AE07B68DB6893
:10080000FB603A690021F86806F058FFFB68BB619D
:10081000FB681033FB60BB69FA68DA60FB68383349
:10082000FB60BB69DB68BB60BB68FA681A617B6808
:100830009B88033323F00303FA681344FB60BB680F
:10084000FA68DA617B68DB88033323F00303FA6814
:100850001344FB60BB68FA685A62FA8A13469B002D
:1008600013449B00033323F00303FA681344FB6033
:10087000BB68FA689A62FB8A033323F00303FA68C1
:100880001344FB60BB68FA685A607B681A89BB68CE
:100890001A81FB7F002B08D0BB6893F8333043F0FC
:1008A0000403DAB2BB6883F833207B689B7C002B9F
:1008B00008D0BB6893F8333043F02003DAB2BB684A
:1008C00083F833207B689A88BB681A83BB68002250
:1008D0009A82BB680022DA827B68DA88BB685A8415
:1008E000BB6800229A857B685B89012213449AB217
:1008F000BB68DA85BB68002283F832207B681A68FF
:10090000BB681A60BB6800229A86B86900F0C2FC16
:10091000BB6918462037BD4680BD80B584B000AFA6
:1009200078600B46FB707B68DB68FB60FB6810330C
:10093000FA781146184601F081F8034683F0010366
:10094000DBB2002B08D0FB6893F8333043F001038F
:10095000DAB2FB6883F8332000BF1037BD4680BD94
:1009600080B584B000AF78607B681B68002B00F016
:1009700083807B68DB68FB60FB6893F8333003F0AF
:100980000203002B55D1FB6893F8333043F0020388
:10099000DAB2FB6883F83320FB681B681946786875
:1009A00000F077FF45E0FB681033184601F01FF8B0
:1009B0000346FB72FB6893F8333003F00803002B07
:1009C00005D0FB7A1946786800F0D6F92AE0FB6872
:1009D00093F832301B2B0CD1FB7A5B2B09D1FB68CF
:1009E00093F8333043F00803DAB2FB6883F833201E
:1009F00018E0FB7A184600F0A5FF0346002B05D04F
:100A0000FB7A1946786800F067FA0BE0FB7A184623
:100A100000F0B7FF0346002B04D0FB7A1946786834
:100A200000F008FA786800F00BFEFB68FA7A83F8A9
:100A30003220FB681033184600F0B9FF0346002B44
:100A4000B1D1FB6893F8333003F00103002B14D0CD
:100A5000FB6800221A84FB68DB69FA68128C134475
:100A600000221A70FB6893F8333023F00103DAB2E6
:100A7000FB6883F8332000E000BF1037BD4680BD1F
:100A800084B0B0B485B000AF786007F1240080E88E
:100A90000E007B68DB68FB60FB689A8DFB68DB8D72
:100AA0009A4201D1002317E0FB685A6AFB689B8DCC
:100AB00019460B469B000B449B0013441D4607F14F
:100AC00024040FCC0FC523682B60FB689B8D01337A
:100AD0009AB2FB689A85012318461437BD46B0BC0C
:100AE00004B0704780B588B000AF78607B68002B99
:100AF00066D0354BFB600023FB770023BB770023D8
:100B0000BB6100237B6147E07B6901337B61BB7F75
:100B1000002B02D00023BB7729E0FB7C5C2B02D1A9
:100B20000123BB7738E0FB7C222B10D1FB7F002B0D
:100B300014BF01230023DBB283F00103DBB2FB7798
:100B4000FB7F03F00103FB770023FB740FE0FB7FC7
:100B500083F00103DBB2002B09D0FB7C1946F86857
:100B600006F0B4FD0346002B01D00023FB74FB7C90
:100B7000002B09D1BB69002B0EDDBB69013B7A68F4
:100B800013441B78002B07D0BB697A681344FA7CA6
:100B90001A70BB690133BB617B697A6813441B78A7
:100BA000FB74FB7C002BAFD1BB697A681344002235
:100BB0001A70BB6901337A68134400221A7000E08E
:100BC00000BF2037BD4680BD7081000880B584B06D
:100BD00000AF78600B467B807B881946786801F00F
:100BE00033F80346FB81FB894FF6FF72934203D033
:100BF000FB897A68134400E0002318461037BD468D
:100C000080BD80B584B000AF78600B467B807B8868
:100C10001946786801F018F80346FB81FB894FF606
:100C2000FF72934203D0FB897A68134400E00023EB
:100C300018461037BD4680BD80B485B000AF7860DF
:100C40007B68002B03D07B681B78002B01D100232D
:100C500019E00023FB6001237B81FB687A68134461
:100C60001B78002B09D1FB6801337A6813441B7889
:100C7000002B06D07B8901337B81FB680133FB604D
:100C8000EBE700BF7B8918461437BD4680BC704730
:100C900080B586B000AF78600B46FB707B68DB6880
:100CA0003B613B699B89002B5FD0FB78002B05D013
:100CB0003B695A893B699B899A4256D0FB7883F0FD
:100CC0000103DBB2002B03D03B695B89002B4CD0C6
:100CD000786800F0A9FD3B691B681946786800F048
:100CE000D8FDFB78002B06D03B695B8901339AB2B3
:100CF0003B695A8105E03B695B89013B9AB23B69DC
:100D00005A813B691A1D3B695B891946104600F000
:100D100022FF78617B69002B01D1164B7B617869DA
:100D2000FFF790FA0346FB813B69DB69FA89796931
:100D3000184606F06BFD3B69DA69FB891344002213
:100D40001A703B69FA891A843B69DB69194678682D
:100D500000F09FFD3B691A8C3B691A863B690022B3
:100D60009A86786800F06CFC00E000BF1837BD463A
:100D700080BD00BF7481000890B585B000AF786079
:100D80000B46FB707B68DB68FB60FB783F2B48D928
:100D9000FB787E2B45D8FB6893F8333023F00803AB
:100DA000DAB2FB6883F83320FB78412B02D0FB7862
:100DB000422B09D1FB78412B0CBF01230023DBB26E
:100DC00019467868FFF764FFFB78432B0FD1FB6867
:100DD0009B8E002B0BD0FB689B8E013B9AB2FB686D
:100DE0009A86124B1B681946786800F052FDFB7812
:100DF000442B16D1FB689B8E1C46FB68DB691846AA
:100E0000FFF720FA03469C420BD2FB689B8E01330E
:100E10009AB2FB689A86064B1B681946786800F000
:100E200038FD00BF1437BD4690BD00BF5400002000
:100E30005800002080B584B000AF78600B46FB708E
:100E40007B68DB68FB60FB681B8C0233FA68528CA2
:100E500093423BDAFB68DB691846FFF7F3F9024679
:100E6000FB689B8ED31ABB60FB68DA69BB680133F1
:100E7000D018FB68DA69BB68D118FB689B8E013318
:100E80001A4606F001FCFB681B8C01339AB2FB6822
:100E90001A84FB681B8E01339AB2FB681A86FB68C2
:100EA000DA69BB681344FA781A70FB689B8E002BD2
:100EB00005D0084B1B681946786800F0EAFC7B688F
:100EC0001B68FA7811467868984700E000BF103731
:100ED000BD4680BD6400002080B584B000AF78605E
:100EE0000B46FB707B68DB68FB60FB6893F8323075
:100EF0000D2B02D1FB780A2B78D0FB6893F83230A7
:100F00000A2B02D1FB780D2B70D0FB780D2B02D071
:100F1000FB780A2B29D1786800F0F4FB354B1B686D
:100F20001946786800F0B5FCFB681B8C002B02D0DA
:100F3000786800F065F8FB6800221A84FB68DB69BA
:100F4000FA68128C134400221A70FB6800221A8679
:100F5000FB6800225A81FB6800229A86FB681B68A6
:100F60001946786800F095FC41E0FB78082B02D028
:100F7000FB787F2B33D1FB681B8C1A46FB689B8E5A
:100F8000D31A002B2BDD1C4B1B681946786800F028
:100F900080FC1A4B1B681946786800F07AFCFB68E5
:100FA000DB691846FFF74EF90246FB689B8ED31AA1
:100FB000BB60FB68DA69BB68013BD018FB68DA6983
:100FC000BB68D118FB689B8E01331A4606F05CFBA8
:100FD000FB681B8C013B9AB2FB681A8407E0FB7824
:100FE000092B04D1786800F08DFB00E000BF1037BA
:100FF000BD4680BD50000020580000206800002041
:1010000090B58FB000AF78607B68DB68BB6101236F
:1010100087F8373000233B630DE0BB69DA693B6B2F
:1010200013441B78202B03D0002387F8373008E0C7
:101030003B6B01333B63BB691B8C1A463B6B934292
:10104000EBDB97F83730002B40F0FA80BB691A1DB4
:10105000BB69DB691946104600F019FD0023FB62ED
:101060000023BB62002387F8273000233B6230E077
:10107000BB69DA693B6A13441B78FB75FB7D202B47
:101080000FD1BB6A002B05D1BB69DA693B6A1344F7
:1010900000221A70FB6A002B18D0012387F8273032
:1010A00014E0FB6A002B05D1BB69DA693B6A134483
:1010B000FB620BE0BB6A002B08D197F82730002BAE
:1010C00004D0BB69DA693B6A1344BB623B6A0133F3
:1010D0003B62BB691B8C1A463B6A9342C8DBBB6907
:1010E000DA69BB691B8C0133134400221A70FB6A56
:1010F000002B00F0A7800023FB6172E0BB69596AF6
:10110000FA6913469B0013449B000B441B68194665
:10111000F86AFFF78DF80346002B5FD1BB69596A67
:10112000FA6913469B0013449B000B441B69002B78
:101130005ED0BB69596AFA6913469B0013449B0051
:101140000B441B7A002B02D0B86AFFF7CBFCBB69BB
:1011500093F8333043F01003DAB2BB6983F83320DD
:10116000BB6A002B1AD03949B86AFFF761F8034609
:10117000002B06D03649B86AFFF75AF80346002B11
:101180000CD1BB69596AFA6913469B0013449B0052
:101190000B441946786800F05DF815E0BB69596AA0
:1011A000FA6913469B0013449B000B441C69BB69FE
:1011B000596AFA6913469B0013449B000B44DB6891
:1011C0001A46B96A7868A047BB6993F8333023F0B0
:1011D0001003DAB2BB6983F8332034E0FB690133D2
:1011E000FB61BB699B8D1A46FB69934286DB00E07D
:1011F00000BF7B685B68002B1DD0FB6AFB60BB6A8D
:101200003B61BB6993F8333043F01003DAB2BB693A
:1012100083F833207B685B6807F10C02114678681D
:101220009847BB6993F8333023F01003DAB2BB69F7
:1012300083F8332007E0F96A786800F021F902E0CA
:1012400000BF00E000BF3C37BD4690BD788100087C
:101250007C81000880B582B000AF786039603B685F
:101260005B68002B10D07B681B6809217868984761
:101270003B685B681946786800F00BFB044B1B6801
:101280001946786800F005FB00BF0837BD4680BDF1
:1012900050000020B0B58AB002AF78600C4B07F167
:1012A0000C041D460FCD0FC42B6823606A4607F15E
:1012B000180393E8030082E8030007F10C030ECB48
:1012C0007868FFF7DDFB00BF2037BD46B0BD00BF2B
:1012D000A481000880B58CB000AFF860B9607A6076
:1012E000FB68DB68FB61FB699B8D002B0AD16049C1
:1012F000F86800F0CEFA5F4B1B681946F86800F0FA
:10130000C8FAB1E0B868FFF797FC03467B837B8B94
:10131000002B2FD10023FB6225E05749F86800F02D
:10132000B8FAFB69596AFA6A13469B0013449B009A
:101330000B441B681946F86800F0ABFA4D4B1B686C
:101340001946F86800F0A5FAFB69596AFA6A13466B
:101350009B0013449B000B441946F868FFF77AFF83
:10136000FB6A0133FB62FB699B8D1A46FB6A934261
:10137000D3DB79E07B8B012B6CD10023BB62012195
:10138000B868FFF723FC7861002387F82730002333
:101390003B6220E0FB69596A3A6A13469B0013449A
:1013A0009B000B441B6879691846FEF741FF034612
:1013B000002B0DD1FB69596A3A6A13469B0013440E
:1013C0009B000B445B68BB62012387F8273008E071
:1013D0003B6A01333B62FB699B8D1A463B6A934231
:1013E000D8DB97F82730002B20D0BB6A002B1DD00C
:1013F0002149F86800F04DFA7969F86800F049FA77
:101400001C4B1B681946F86800F043FAFB681B6820
:101410000921F8689847B96AF86800F03AFA154B5C
:101420001B681946F86800F034FA1DE097F8273079
:10143000002B0AD00E49F86800F02BFA0D4B1B6800
:101440001946F86800F025FA0EE07969F86800F0AE
:1014500017F809E00949F86800F01BFA054B1B680A
:101460001946F86800F015FA3037BD4680BD00BF58
:10147000B881000850000020D0810008D481000805
:1014800080B582B000AF786039600B49786800F0B1
:1014900000FA3968786800F0FCF90849786800F0CB
:1014A000F8F9074B1B681946786800F0F2F900BF9D
:1014B0000837BD4680BD00BF0482000818820008BE
:1014C0005000002080B58EB000AFF860B9607A603F
:1014D00000233B610023BB820023FB827868FEF778
:1014E000B1FE7862BB68DB683B623B6A9B8D002B78
:1014F00002D07B6A002B08D1FB681A4607F1100363
:1015000093E8030082E8030095E000237B6383E017
:101510003B6A596A7A6B13469B0013449B000B4449
:101520001B68FB61F869FEF78DFEB8613B6A9A6A39
:101530007B6B13441A783B6A996A7B6B0B4422F0ED
:101540000102D2B21A70BA697B6A9A425ED3012351
:1015500087F833300023FB6210E07A68FB6A13449B
:101560001A78F969FB6A0B441B789A4203D000236E
:1015700087F8333006E0FB6A0133FB62FA6A7B6A64
:101580009A42EAD397F8333083F00103DBB2002BA1
:101590003ED13B6A9A6A7B6B13441A783B6A996A1C
:1015A0007B6B0B4442F00102D2B21A70FB8A002B13
:1015B00004D0BB8A1A46BB69934202D2BB699BB274
:1015C000BB82FB8A01339BB2FB82FB8A012B02D1D7
:1015D000FB693B611DE03B6A1B8CBB6210E03A6912
:1015E000BB6A13441A78F969BB6A0B441B789A42A8
:1015F00003D0BB6A9BB2BB820BE0BB6A0133BB6208
:10160000BB8A1A46BB6A9342E9D302E000BF00E0FE
:1016100000BF7B6B01337B633B6A9B8D1A467B6B00
:101620009342FFF675AFFB681A4607F1100393E883
:10163000030082E80300F8683837BD4680BD00002B
:1016400080B588B000AF78607B68DB687B617B69C0
:1016500093F8333003F02003002B4AD07B69DA691A
:1016600007F10C0379681846FFF72CFF7B8A002BE3
:1016700002D17B691B8C3B82204B1B681946786822
:1016800000F007F97B699B8E01221946786800F00B
:1016900021F97B691B8CFB610BE07B681B68F96897
:1016A000FA690A441278114678689847FB69013351
:1016B000FB613B8A1A46FB699342EED33B8ABB61CE
:1016C00007E07B681B68202178689847BB69013375
:1016D000BB617B691B8E1A46BB699342F1D33A8A80
:1016E0007B691A86064B1B681946786800F0D1F8AA
:1016F00000E000BF2037BD4680BD00BF5C00002079
:101700006000002080B588B000AF78607B68DB683F
:10171000BB61BB69DA6907F10C0379681846FFF70A
:10172000D1FE7B8A002B78D07B8A012B04D03A8AA9
:10173000BB691B8C9A4231D9BB69DB69F9683A8A6B
:10174000184606F063F87B8A012B09D1BB69DB6977
:101750003A8A134420221A703B8A01339BB23B829F
:10176000BB69DB693A8A134400221A70BB69DB69E2
:10177000BA69128C1146BA69928E8A1A13441946B4
:10178000786800F086F83A8ABB691A84BB691A8CBB
:10179000BB691A86BB6900229A863FE0786800F030
:1017A00043F80023FB6121E0BB699A6AFB6913449B
:1017B0001B7803F00103002B14D0BB69596AFA6946
:1017C00013469B0013449B000B441B687B617969A3
:1017D000786800F05EF8134B1B681946786800F0D3
:1017E00058F800E000BFFB690133FB61BB699B8DCA
:1017F0001A46FB699342D7DBBB691B6819467868B8
:1018000000F047F8BB69DB691946786800F041F8D9
:10181000BB691A8CBB691A8600E000BF2037BD4641
:1018200080BD00BF5000002090B587B000AF786049
:101830007B68DB683B613B691B8E1C463B691B6810
:101840001846FEF7FFFC03462344FB607B681B68D9
:101850000D217868984700237B6107E07B681B684F
:101860002021786898477B6901337B617A69FB683E
:101870009A42F3D37B681B680D21786898473B69CF
:1018800000221A863B6900229A8600BF1C37BD469B
:1018900090BD80B584B000AF786039603868FEF7DD
:1018A000D1FCB8600023FB600BE07B681B683968E3
:1018B000FA680A441278114678689847FB68013341
:1018C000FB60FA68BB689A42EFD300BF00BF1037D5
:1018D000BD4680BD80B586B000AF78600B467B808A
:1018E00013467B707B88002B21D00023FB6007F11F
:1018F000100300221A601A717B78002B04D00E4B63
:101900001B6802331B7803E00C4B1B6802331B7807
:10191000FB757A88FB7D07F10C00094905F094FE00
:1019200007F10C0319467868FFF7B3FF00E000BF2A
:101930001837BD4680BD00BF54000020580000206D
:101940004C82000880B483B000AF0346FB71FB7982
:101950000D2B0BD0FB790A2B08D0FB79082B05D077
:10196000FB79092B02D0FB797F2B01D1012300E009
:10197000002303F00103DBB218460C37BD4680BCE0
:10198000704780B483B000AF0346FB71FB791F2B17
:1019900004D9FB797E2B01D8012300E0002303F05A
:1019A0000103DBB218460C37BD4680BC704780B4DB
:1019B00083B000AF78607B68DA887B689B889A4246
:1019C00006D37B68DA887B689B88D31A9BB209E0D0
:1019D0007B681A897B689B88D31A9AB27B68DB88FC
:1019E00013449BB218460C37BD4680BC704780B488
:1019F00085B000AF78600023FB737B689A887B68B2
:101A0000DB889A4214D07B681B687A6892881344FA
:101A10001B78FB737B689B8801339BB27A681289C1
:101A2000B3FBF2F101FB02F29B1A9AB27B689A8037
:101A3000FB7B18461437BD4680BC704780B485B028
:101A400000AF78600B46FB707B68DB8801339BB28C
:101A50007A681289B3FBF2F101FB02F29B1AFB8157
:101A60007B689B88FA899A420BD07B681B687A68EE
:101A7000D2881344FA781A707B68FA89DA800123D5
:101A800000E0002318461437BD4680BC704780B57F
:101A900088B000AF786039603868FEF7D3FBB86172
:101AA0007B689B881A46BB6901339A4201D20023A6
:101AB0004DE03968786800F06AF824E07B681B899B
:101AC0001946786800F047F878617869FEF7BAFB44
:101AD00038617B681B687A69D31A1A463B691344DC
:101AE0000133FB617B689B881A46FB69D31AFB6054
:101AF000BB690133FA689A420AD27B681B89013BB1
:101B00009AB27B681A817B681B89002BD6D100E0D2
:101B100000BF7B681B89002B0AD07B681A68BB69F1
:101B20000133D0187B681B68FA69194605F0ACFDD3
:101B30007B681868BB6901331A46396805F066FE90
:101B40007B681B8901339AB27B681A81012318468E
:101B50002037BD4680BD80B582B000AF78600B46AF
:101B60007B807B88002B04D07B681B897A889A4213
:101B700001D9002307E07B681B687A881146184664
:101B8000FFF724F8034618460837BD4680BD80B5E8
:101B900086B000AF786039603B68002B4CD07B6822
:101BA0001B89002B48D000237B6101237B8213E03B
:101BB0007B681B687A8A11461846FFF722F878611D
:101BC00039687869FEF734FB0346002B0AD00023FE
:101BD0007B617B8A01337B827B681B897A8A9A428C
:101BE000E6D900E000BF7B69002B27D07B681B890A
:101BF000013B9AB27B681A817A8A7B681B89013320
:101C00009A421DD07869FEF71DFBF8607B689B88BF
:101C10001946FB6801337A691A447B681B68D31A3A
:101C2000CB1ABB60FB6801337A691344BA68194662
:101C3000786905F029FD04E000BF02E000BF00E084
:101C400000BF1837BD4680BD80B485B000AF786056
:101C50000B467B807B68002B02D07B88002B02D157
:101C60004FF6FF7328E00023FB810123BB81BA8973
:101C70007B889A4213D0FB897A6813441B78002B27
:101C800009D1BB890133BB81FB8901337A681344D5
:101C90001B78002B05D0FB890133FB81E7E700BFF0
:101CA00000E000BFFB897A6813441B78002B01D049
:101CB000FB8901E04FF6FF7318461437BD4680BC20
:101CC0007047000080B485B000AFF860B9607A60FA
:101CD000FB68064A1A60BB68054A1A607B68802266
:101CE0001A6000BF1437BD4680BC7047380500201D
:101CF000D805002080B584B000AF78607868FEF722
:101D0000A1FA0346FB60FB68002B08D0FB689AB27F
:101D10004FF0FF337968044803F0FCF800E000BF9F
:101D20001037BD4680BD00BFE007002080B582B0FF
:101D300000AF78607868FFF7DDFF0348FFF7DAFF50
:101D400000BF0837BD4680BD54820008B0B592B0D0
:101D500000AF01F021FA00F04BF800F0E1F800F0DC
:101D6000C1F800F095F800F07FF81B4B07F138043C
:101D70000FCB84E80F0007F138030021184603F069
:101D800045FB0346154A1360154B07F11C041D461D
:101D90000FCD0FC495E8070084E8070007F11C0386
:101DA0000021184603F0E6FA03460E4A13600E4B74
:101DB0003C461D460FCD0FC495E8070084E8070098
:101DC0003B460021184603F0D5FA0346074A136044
:101DD00003F0C9FA00BFFDE758820008740800202C
:101DE000708200086C0800209882000870080020AB
:101DF00080B590B000AF07F11803282200211846E3
:101E000005F05CFC3B1D00221A605A609A60DA60A3
:101E10001A610223BB610123BB621023FB62002312
:101E20007B6307F11803184602F074F90346002B90
:101E300001D000F0EBFA0F237B600023BB6000238E
:101E4000FB6000233B6100237B613B1D00211846A2
:101E500002F0E2FB0346002B01D000F0D7FA00BFEE
:101E60004037BD4680BD000080B500AF064B074A35
:101E70001A60054801F0A1FA0346002B01D000F0DA
:101E8000C5FA00BF80BD00BFD80700200030024067
:101E900080B500AF114B124A1A60104B4FF4E1327B
:101EA0005A600E4B00229A600C4B0022DA600B4BFA
:101EB00000221A61094B0C225A61084B00229A61D8
:101EC000064B0022DA61054802F0D4FF0346002BDE
:101ED00001D000F09BFA00BF80BD00BFE0070020EA
:101EE0000044004080B582B000AF0C4B5B690B4AE8
:101EF00043F001035361094B5B6903F001037B600D
:101F00007B6800220521102001F02DFA102001F03D
:101F100046FA00BF0837BD4680BD00BF0010024032
:101F200080B58CB000AF07F1200300221A605A6020
:101F30009A60DA608D4B9B698C4A43F0040393618D
:101F40008A4B9B6903F00403FB61FB69874B9B6928
:101F5000864A43F010039361844B9B6903F010039E
:101F6000BB61BB69814B9B69804A43F00803936165
:101F70007E4B9B6903F008037B617B697B4B9B690C
:101F80007A4A43F080039361784B9B6903F08003A6
:101F90003B613B69754B9B69744A43F48073936161
:101FA000724B9B6903F48073FB60FB686F4B9B690A
:101FB0006E4A43F0400393616C4B9B6903F040030E
:101FC000BB60BB68694B9B69684A43F0200393611F
:101FD000664B9B6903F020037B607B6800224FF413
:101FE0006041634802F07EF800224FF6FF716148BD
:101FF00002F078F800224FF683715F4802F072F821
:1020000000224FF6F8715D4802F06CF800224FF69E
:10201000FF715B4802F066F800224FF4FE51594808
:1020200002F060F800224FF41F41574802F05AF8BE
:10203000F0233B6200237B620023BB6207F1200395
:102040001946514801F0BAFE30233B6200237B62FF
:102050000023BB6207F1200319464A4801F0AEFE97
:1020600003233B6200237B620023BB6207F1200352
:102070001946424801F0A2FE4FF4C0533B620023D0
:102080007B620023BB6207F120031946384801F048
:1020900095FE4FF460433B6201237B620023BB62E9
:1020A0000223FB6207F120031946314801F086FE46
:1020B0004FF6FF733B6201237B620023BB62022366
:1020C000FB6207F1200319462A4801F077FE4FF61C
:1020D00083733B6201237B620023BB620223FB62AA
:1020E00007F120031946244801F068FE4FF6F87303
:1020F0003B6201237B620023BB620223FB6207F188
:10210000200319461D4801F059FE4FF6FF733B624C
:1021100001237B620023BB620223FB6207F12003E1
:102120001946174801F04AFE4FF4FE533B62012363
:102130007B620023BB620223FB6207F12003194686
:10214000104801F03BFE4FF41F433B6201237B62CA
:102150000023BB620223FB6207F1200319460A48F1
:1021600001F02CFE00BF3037BD4680BD001002409C
:10217000001C01400020014000180140000C0140FB
:1021800000140140001001400008014080B483B0F9
:1021900000AF00237B60364B9B683B603B6803F0DD
:1021A0001003002B03D17B6843F001037B603B6885
:1021B00003F08003002B03D17B6843F080037B6036
:1021C0003B6803F04003002B03D17B6843F480732A
:1021D0007B603B6803F02003002B03D17B6843F452
:1021E00000737B60234B9B683B603B6803F00203FA
:1021F000002B03D17B6843F008037B603B6803F04E
:102200000103002B03D17B6843F010037B601A4B62
:102210009B683B603B6803F02003002B03D17B6885
:1022200043F020037B603B6803F01003002B03D1D5
:102230007B6843F040037B60104B9B683B603B68CE
:1022400003F48053002B03D17B6843F002037B60CF
:102250003B6803F40063002B03D17B6843F0040365
:102260007B607B6818460C37BD4680BC704700BF5A
:1022700000080140000C014000100140001C01401A
:1022800080B487B000AF78600023FB6000237B61DF
:102290000FE07A687B6922FA03F303F00103002B55
:1022A00004D07B693B61FB680133FB607B690133D0
:1022B0007B617B691F2BECDDFB68002B02D14FF0AB
:1022C000FF3306E0FB68012B01D13B6901E06FF0B1
:1022D000010318461C37BD4680BC704780B582B0EC
:1022E00000AFFFF753FF78607868FFF7C9FF3860E9
:1022F000364B1B78022B55D0022B60DC002B02D012
:10230000012B0DD05BE03B68002B53DB2F4B0122F0
:102310001A702F4A3B6813602E4B01221A6049E065
:102320003B6813F1020F0AD1284B02221A70284B86
:102330004FF0FF321A60274B00221A603CE03B68E6
:10234000B3F1FF3F0AD1214B00221A70204B4FF00E
:10235000FF321A601F4B00221A602DE01C4B1B68D5
:102360003A689A4214D11B4B1B680133194A136017
:10237000184B1B68032B1FDD144B02221A70144BE1
:102380004FF0FF321A60134B00221A603B6818E0CE
:102390000E4B02221A700E4A3B6813600D4B01224D
:1023A0001A6009E03B68B3F1FF3F07D1074B0022F9
:1023B0001A7003E000BF02E000BF00E000BF4FF072
:1023C000FF3318460837BD4680BD00BF6C000020B3
:1023D000700000207808002080B500AFFFF77EFF76
:1023E0000346184680BD000080B582B000AF78601B
:1023F0007B681B68044A934201D100F0E3FE00BFF2
:102400000837BD4680BD00BF002C014080B400AF3E
:1024100072B600BF00BFFDE780B485B000AF786042
:1024200039603B68002B34D00023FB602AE0FB6856
:102430005B007A6822FA03F303F00303BB60BB6816
:10244000002B05D13A68FB68134430221A7016E05D
:10245000BB68012B05D13A68FB68134431221A701E
:102460000DE0BB68022B05D13A68FB6813443222A9
:102470001A7004E03A68FB6813442D221A70FB6856
:102480000133FB60FB68082BD1DD3B6800225A72E8
:1024900000E000BF1437BD4680BC704780B58AB0ED
:1024A00006AF78600023FB6016E03B497A6813466C
:1024B0009B0013445B00FA68134451F82300FA6848
:1024C00013469B0013445B00344A13441946FFF73C
:1024D000A3FFFB680133FB60FB68032BE5DD7B6832
:1024E000591C2D487A6813469B001344DB000344B3
:1024F00020331B6804932A4B03932A4B02932A4BE5
:102500000193264B00930B46284A4FF480712848CC
:1025100005F066F82648FFF709FC0023BB6017E0CA
:102520001D497A6813469B0013445B00BA68134444
:10253000043351F82300BA6813469B0013445B0030
:10254000164A13441946FFF767FFBB680133BB60A7
:10255000BB68032BE4DD10497A6813469B001344E3
:10256000DB000B4424331B6803930D4B02930D4B8C
:1025700001930D4B0093094B0E4A4FF480710C48A8
:1025800005F02EF80A48FFF7D1FB0020FFF7CEFB3D
:1025900000BF1037BD4680BD940100207C0900209B
:1025A0009A0900209009002086090020B4820008C2
:1025B0007C080020E882000880B584B000AFF86095
:1025C000B9607A603B60BB68002B2AD0BB68196891
:1025D0003C48FA6813469B001344DB00034419602F
:1025E000BB6859683748FA6813469B001344DB0000
:1025F000034404331960BB6899683248FA6813468B
:102600009B001344DB00034408331960BB68D9689E
:102610002C48FA6813469B001344DB0003440C3338
:1026200019607B68002B0AD07B6819682548FA6816
:1026300013469B001344DB000344203319603B68BE
:10264000002B2BD03B6819681E48FA6813469B0084
:102650001344DB000344103319603B685968194880
:10266000FA6813469B001344DB00034414331960DB
:102670003B6899681348FA6813469B001344DB00D3
:102680000344183319603B68D9680E48FA6813464A
:102690009B001344DB0003441C331960BB69002B0F
:1026A0000AD0BB6919680748FA6813469B001344AF
:1026B000DB0003442433196000F032FA00BF103706
:1026C000BD4680BD9401002080B584B000AFF860A5
:1026D000B96011461A460B46FB711346BB71BB79B4
:1026E000012B2CD12E49FA681346DB001344BA683B
:1026F000134451F823002B49FA681346DB001344B6
:10270000BA68134431F81330FA79194601F0EAFC3B
:102710002549FA681346DB001344BA68134451F89C
:1027200023002249FA681346DB001344BA681344B5
:1027300031F81330BA79194601F0D4FC2BE01A496C
:10274000FA681346DB001344BA68134451F82300B7
:102750001649FA681346DB001344BA68134431F88B
:102760001330BA79194601F0BDFC0D49FA681346D9
:10277000DB001344BA68134451F823000949FA688E
:102780001346DB001344BA68134431F81330FA7966
:10279000194601F0A7FC00BF1037BD4680BD00BF41
:1027A00004010020CC83000874000020848300080A
:1027B00080B586B000AF786000237B6134E00023F1
:1027C0003B612BE07B699B007A6813441B683A6984
:1027D0005200012101FA02F21340002B14BF012321
:1027E0000023DBB2FB737B699B007A6813441B6890
:1027F0003A6952000132012101FA02F21340002B22
:1028000014BF01230023DBB2BB73BB7BFA7B3969A6
:102810007869FFF759FF3B6901333B613B69082B3E
:10282000D0DD7B6901337B617B69032BC7DD00BF92
:1028300000BF1837BD4680BD80B582B000AF78605C
:102840007B68264A4FF48071254804F0C9FE24486D
:10285000FFF76CFA7B68002B1FD1224B1B78002BF3
:102860000DD0214B186800230022204902F0EAFF16
:102870000346012B2ED01E48FFF758FA2AE01A4BC8
:102880001868002300221B4902F0DCFF0346012BDD
:1028900020D01748FFF74AFA1CE07B68002B19DDAF
:1028A0007B68092B16DC0F4B01221A700E4B18683F
:1028B0007B685A1E13469B001344DB000E4A99188E
:1028C0000023002202F0BEFF0346012B02D008487D
:1028D000FFF72CFA00BF0837BD4680BD1C830008F7
:1028E0007C080020A409002074080020FC020020BD
:1028F0002C830008240300209401002080B500AF41
:10290000044B186800230022034902F09BFF00BF1C
:1029100080BD00BF7408002024030020B0B58CB037
:1029200000AF7860642003F027FC00F051F908E064
:1029300000BF06E000BF04E000BF02E000BF00E00F
:1029400000BF6D4A6C4B02F5DC7403F5F0750FCDDA
:102950000FC40FCD0FC495E8030084E80300664B55
:10296000D3F8B831654A934236D06548FFF720FF67
:10297000614BD3F8D8314FF47A7202FB03F3FB6258
:10298000FB6A002B02D14FF0FF33FB625D4B1B68EB
:10299000FA6A5D49184603F057F80346012BC7D081
:1029A0005A48FFF705FF544BD3F8DC314FF47A72E5
:1029B00002FB03F3FB62FB6A002B02D14FF0FF33F3
:1029C000FB62504B1B68FA6A4F49184603F03CF80B
:1029D0000346012BAED0C8E700BF0023BB6211E065
:1029E00000237B6208E000230022796AB86AFFF7BF
:1029F0006BFE7B6A01337B627B6A082BF3DDBB6A6B
:102A00000133BB62BB6A032BEADD00233B621BE0A0
:102A10000023FB6112E001230022F969386AFFF705
:102A200053FE384B1B6864223749184603F00CF8F4
:102A30000346012B80D0FB690133FB61FB69082B46
:102A4000E9DD3B6A01333B623B6A032BE0DD002397
:102A5000BB611CE000237B6113E000230122796944
:102A6000B869FFF731FE274B1B68642226491846D8
:102A700002F0EAFF0346012B3FF460AF7B690133AC
:102A80007B617B69082BE8DDBB690133BB61BB69F6
:102A9000032BDFDD00233B611CE00023FB6013E020
:102AA00000230022F9683869FFF70EFE154B1B68FA
:102AB00064221549184602F0C7FF0346012B3FF474
:102AC0003FAFFB680133FB60FB68082BE8DD3B6927
:102AD00001333B613B69032BDFDD074A064B02F5FF
:102AE000F07403F5B4750FCD0FC40FCD0FC495E886
:102AF000030084E8030024E794010020EFBEADDE6C
:102B00004C03002074080020740300205C030020A4
:102B100080B500AF322003F02FFB00BF80BD000066
:102B2000B0B588B000AF5A222549264800F061FCB4
:102B3000B86100F0B3FF00237B600123BB60224B30
:102B4000FB6001233B613A463B1D1146184601F0EC
:102B50008DF80346002B01D001232CE0FFF7D8FFAE
:102B6000174B7B610023FB6113E0FB6903F180736A
:102B700003F57F43D900FB69DB007A691344D3E98D
:102B80000023032000F01AFFFFF7C2FFFB690133A7
:102B9000FB61FB692C2BE8DDBB6900221C46154656
:102BA00022462B460949022000F008FFFFF7B0FF3C
:102BB00000F09AFF002318462037BD46B0BD00BF85
:102BC00094010020D807002000F8070868F90708DA
:102BD000B0B584B000AF0023FB60B6E0FA681346DE
:102BE0009B001344DB0003F1006303F5FF23196826
:102BF0007448FA6813469B001344DB0003441960D1
:102C0000FA6813469B001344DB001A466E4B1344CC
:102C100019686C48FA6813469B001344DB000344B0
:102C200004331960FA6813469B001344DB001A460C
:102C3000664B134419686348FA6813469B001344B3
:102C4000DB00034408331960FA6813469B00134401
:102C5000DB001A465E4B134419685A48FA6813465B
:102C60009B001344DB0003440C331960FA681346DD
:102C70009B001344DB001A46564B13441968514815
:102C8000FA6813469B001344DB00034410331960B9
:102C9000FA6813469B001344DB001A464E4B13445C
:102CA00019684848FA6813469B001344DB00034444
:102CB00014331960FA6813469B001344DB001A466C
:102CC000464B134419683F48FA6813469B00134467
:102CD000DB00034418331960FA6813469B00134461
:102CE000DB001A463E4B134419683648FA6813460F
:102CF0009B001344DB0003441C331960FA6813463D
:102D00009B001344DB001A46364B134419682D48C8
:102D1000FA6813469B001344DB0003442033196018
:102D2000FA6813469B001344DB001A462E4B1344EB
:102D300019682448FA6813469B001344DB000344D7
:102D400024331960FB680133FB60FB68082B7FF7B5
:102D500045AF264B1B687B605A221A49244800F075
:102D600048FB38607A683B689A4203D02148FEF7F6
:102D7000DDFF23E00023BB601AE01F49BA68134659
:102D80009B001344DB00C8180E49BA6813469B0029
:102D90001344DB000B4404461D460FCD0FC40FCD7A
:102DA0000FC495E8030084E80300BB680133BB60EF
:102DB000BB68082BE1DD1148FEF7B8FF00BF1037F4
:102DC000BD46B0BDA809002004F8070808F80708A8
:102DD0000CF8070810F8070814F8070818F807088F
:102DE0001CF8070820F8070824F8070868F90708FE
:102DF000D807002040830008940100206883000861
:102E000080B584B000AF184B9B69174A43F00103AB
:102E10009361154B9B6903F00103BB60BB68124BC8
:102E2000DB69114A43F08053D3610F4BDB6903F038
:102E300080537B607B6800220F216FF0010000F05F
:102E400092FA0A4B5B68FB60FB6823F0E063FB606F
:102E5000FB6843F00073FB60044AFB68536000BFEB
:102E60001037BD4680BD00BF001002400000014089
:102E700080B485B000AF78607B681B68094A9342D4
:102E80000BD1094B5B69084A43F040035361064B81
:102E90005B6903F04003FB60FB6800BF1437BD466D
:102EA00080BC7047003002400010024080B588B0FE
:102EB00000AF786007F1100300221A605A609A6030
:102EC000DA607B681B682E4A934255D12D4BDB6933
:102ED0002C4A43F40033D3612A4BDB6903F40033FB
:102EE000FB60FB68274B9B69264A43F00403936110
:102EF000244B9B6903F00403BB60BB6804233B6164
:102F000002237B610323FB6107F1100319461E486E
:102F100000F054FF08233B6100237B610023BB6169
:102F200007F110031946184800F048FF174B184ADC
:102F30001A60164B00225A60144B00229A60134B01
:102F40008022DA60114B00221A61104B00225A6174
:102F50000E4B00229A610D4B0022DA610B4800F003
:102F60007BFA0346002B01D0FFF750FA7B68074A33
:102F7000DA63064A7B68536200BF2037BD4680BDD6
:102F800000440040001002400008014028080020D2
:102F90006C00024080B58CB000AF78600023BB624B
:102FA00000237B62002387F82F302E4B9B692D4A2C
:102FB00043F4006393612B4B9B6903F40063BB6094
:102FC000BB6807F10C0207F110031146184601F027
:102FD00093FC01F07DFCB862BB6A234AA2FB032389
:102FE0009B0C013B7B62214B214A1A601F4B40F234
:102FF000E732DA601D4A7B6A53601C4B00221A617B
:103000001A4B00229A60194B00229A61174801F06E
:10301000C1FC034687F82F3097F82F30002B1BD1C7
:10302000124801F00FFD034687F82F3097F82F3034
:10303000002B11D1192000F0B2F97B680F2B08D8B2
:1030400000227968192000F08EF90A4A7B68136023
:1030500002E0012387F82F3097F82F3018463037D9
:10306000BD4680BD0010024083DE1B43100B0020D4
:10307000002C0140A003002080B400AF00BFFDE79A
:1030800080B400AF00BFFDE780B400AF00BFFDE734
:1030900080B400AF00BFFDE780B400AF00BFFDE724
:1030A00080B400AF00BFBD4680BC704780B500AFA4
:1030B000024800F047FA00BF80BD00BF280800208A
:1030C00080B500AF024801F01DFD00BF80BD00BF0C
:1030D000100B002080B586B000AF7860144A154B05
:1030E000D31A7B617B693B61134B1B68002B02D1B8
:1030F000114B124A1A60104B1A687B6813443A69E4
:103100009A4207D204F056FB03460C221A604FF095
:10311000FF3309E0084B1B68FB60074B1A687B68AC
:103120001344054A1360FB6818461837BD4680BD36
:103130000000012000040000580B0020184E002061
:1031400080B400AF00BFBD4680BC7047FFF7F8FFFA
:103150000B480C490C4A002302E0D458C4500433F5
:10316000C4188C42F9D3094A094C002301E01360CA
:103170000432A242FBD304F023FBFEF7E7FD7047C5
:1031800000000020FC0300208485000800040020CB
:10319000144E0020FEE7000080B500AF084B1B680E
:1031A000074A43F010031360032000F0D1F80F200A
:1031B000FFF7F0FEFFF724FE0023184680BD00BF96
:1031C0000020024080B400AF054B1B781A46054B27
:1031D0001B681344034A136000BFBD4680BC7047A0
:1031E000A40300205C0B002080B400AF024B1B68DE
:1031F0001846BD4680BC70475C0B002080B485B08B
:1032000000AF78607B6803F00703FB600C4BDB6862
:10321000BB60BA684FF6FF031340BB60FB681A023D
:10322000BB68134343F0BF6343F40033BB60044AFD
:10323000BB68D36000BF1437BD4680BC704700BF79
:1032400000ED00E080B400AF044BDB681B0A03F024
:1032500007031846BD4680BC704700BF00ED00E084
:1032600080B483B000AF0346FB7197F90730002BA1
:103270000BDBFB7903F01F02064997F907305B0966
:10328000012000FA02F241F8232000BF0C37BD46AE
:1032900080BC704700E100E080B483B000AF03461B
:1032A0003960FB7197F90730002B0ADB3B68DAB213
:1032B0000C4997F907301201D2B20B4483F800236E
:1032C0000AE03B68DAB20849FB7903F00F03043BDC
:1032D0001201D2B20B441A7600BF0C37BD4680BC37
:1032E000704700BF00E100E000ED00E080B489B06D
:1032F00000AFF860B9607A60FB6803F00703FB6118
:10330000FB69C3F10703042B28BF0423BB61FB69DE
:103310000433062B02D9FB69033B00E000237B61E9
:103320004FF0FF32BB6902FA03F3DA43BB681A407D
:103330007B699A404FF0FF317B6901FA03F3D9436F
:103340007B680B40134318462437BD4680BC70474A
:1033500080B582B000AF78607868FFF74FFF00BF9C
:103360000837BD4680BD80B586B000AF0346B96062
:103370007A60FB7300237B61FFF764FF78617A68F2
:10338000B9687869FFF7B2FF024697F90F30114626
:103390001846FFF781FF00BF1837BD4680BD80B5D6
:1033A00082B000AF0346FB7197F907301846FFF76C
:1033B00057FF00BF0837BD4680BD80B582B000AF63
:1033C00078607B68002B01D101230EE07B685B797C
:1033D000DBB2002B05D17B6800221A717868FFF7F9
:1033E00047FD7B6801225A71002318460837BD4605
:1033F00080BD80B487B000AFF860B9607A60002308
:103400003B61FB6802225A71FB681B689A68FB6883
:103410001B6842F001029A6000237B610AE07B692D
:103420009B00BA681A44FB681B6812681A607B69C3
:1034300001337B617A697B689A42F0D3FB681B6831
:103440001B683B61FB6801225A713B6918461C37B7
:10345000BD4680BC7047000080B485B000AF786086
:103460000023FB607B68002B01D1012359E07B68BE
:103470001B681A462D4B9A420FD87B681B681A4668
:103480002B4B13442B4AA2FB03231B099A007B6896
:103490001A647B68284ADA630EE07B681B681A4668
:1034A000264B1344234AA2FB03231B099A007B6883
:1034B0001A647B68224ADA637B68022283F821203F
:1034C0007B681B681B68FB60FB6823F47F5323F059
:1034D0003003FB607B685A687B689B681A437B6893
:1034E000DB681A437B681B691A437B685B691A4374
:1034F0007B689B691A437B68DB691343FA68134353
:10350000FB607B681B68FA681A607B6800229A631C
:103510007B68012283F821207B68002283F8202029
:10352000002318461437BD4680BC7047070402408C
:10353000F8FFFDBFCDCCCCCC00000240F8FBFDBFB6
:103540000004024080B584B000AF78607B68DB6B1C
:103550001B68FB607B681B681B68BB607B681B6C1F
:1035600004229A40FB681340002B00F0F180BB68F6
:1035700003F00403002B00F0EB807B681B681B68E2
:1035800003F02003002B07D17B681B681A687B6857
:103590001B6822F004021A607B681B681A465F4BA6
:1035A0009A4258D97B681B685D4A93424FD07B682A
:1035B0001B685C4A934248D07B681B685A4A934216
:1035C00040D07B681B68594A934238D07B681B689F
:1035D000574A934230D07B681B68564A934228D0A2
:1035E0007B681B684D4A934220D07B681B68524A17
:1035F000934219D07B681B68504A934212D07B6873
:103600001B684F4A93420AD07B681B684D4A93421D
:1036100002D14FF480431BE04FF4802318E04FF4B5
:10362000806315E0402313E0042311E04FF0806332
:103630000EE04FF480030BE04FF4802308E04FF4DA
:10364000804305E04FF4806302E0402300E0042360
:103650003D4A536057E07B681B68314A93424FD024
:103660007B681B682F4A934248D07B681B682E4AB0
:10367000934240D07B681B682C4A934238D07B68C9
:103680001B682B4A934230D07B681B68294A9342BF
:1036900028D07B681B68214A934220D07B681B6836
:1036A000254A934219D07B681B68244A934212D062
:1036B0007B681B68224A93420AD07B681B68214AB8
:1036C000934202D14FF480431BE04FF4802318E073
:1036D0004FF4806315E0402313E0042311E04FF022
:1036E00080630EE04FF480030BE04FF4802308E08A
:1036F0004FF4804305E04FF4806302E0402300E094
:103700000423124A53607B68DB6A002B00F0368189
:103710007B68DB6A7868984730E100BF8000024030
:10372000080002401C0002403000024044000240F9
:10373000580002406C000240080402401C04024091
:1037400030040240440402400004024000000240F1
:103750007B681B6C02229A40FB681340002B00F030
:10376000DD80BB6803F00203002B00F0D7807B688C
:103770001B681B6803F02003002B0BD17B681B68C0
:103780001A687B681B6822F00A021A607B680122B3
:1037900083F821207B681B681A467B4B9A4258D9D4
:1037A0007B681B68794A93424FD07B681B68784AD4
:1037B000934248D07B681B68764A934240D07B682E
:1037C0001B68754A934238D07B681B68734A9342E2
:1037D00030D07B681B68724A934228D07B681B6894
:1037E000694A934220D07B681B686E4A934219D085
:1037F0007B681B686C4A934212D07B681B686B4ADB
:1038000093420AD07B681B68694A934202D14FF405
:1038100000531BE04FF4003318E04FF4007315E041
:10382000202313E0022311E04FF000730EE04FF469
:1038300000130BE04FF4003308E04FF4005305E0B1
:103840004FF4007302E0202300E00223594A536042
:1038500057E07B681B684D4A93424FD07B681B68DA
:103860004B4A934248D07B681B684A4A934240D0F7
:103870007B681B68484A934238D07B681B68474A7C
:10388000934230D07B681B68454A934228D07B68BE
:103890001B683D4A934220D07B681B68414A934293
:1038A00019D07B681B68404A934212D07B681B6822
:1038B0003E4A93420AD07B681B683D4A934202D13C
:1038C0004FF400531BE04FF4003318E04FF4007343
:1038D00015E0202313E0022311E04FF000730EE007
:1038E0004FF400130BE04FF4003308E04FF40053A3
:1038F00005E04FF4007302E0202300E002232E4A8B
:1039000053607B68002283F820207B689B6A002B31
:1039100034D07B689B6A786898472FE07B681B6C83
:1039200008229A40FB681340002B28D0BB6803F0A4
:103930000803002B23D07B681B681A687B681B6810
:1039400022F00E021A607B681A6C7B68DB6B012127
:1039500001FA02F25A607B6801229A637B680122B5
:1039600083F821207B68002283F820207B681B6B72
:10397000002B04D07B681B6B7868984700BF00BFA2
:103980001037BD4680BD00BF8000024008000240E5
:103990001C00024030000240440002405800024037
:1039A0006C000240080402401C0402403004024043
:1039B000440402400004024000000240F0B587B019
:1039C00000AFF860B960C7E900230123FB7500234D
:1039D000BB7500237B752F4B1B7E012B01D102236E
:1039E00054E02C4B01221A764CF2503000F0A8F82B
:1039F0000346FB75FB7D002B44D1FB68012B02D1F4
:103A000001237B7507E0FB68022B02D102237B7543
:103A100001E004237B750023BB752DE0BB7D5A00BC
:103A2000BB6802EB030CBB7D1901D7E90023C1F190
:103A30002006A1F1200022FA01F403FA06F634432D
:103A400023FA00F0044323FA01F5A3B219466046B5
:103A500000F05AF84CF2503000F072F80346FB7553
:103A60000D4B1B690C4A23F001031361FB7D002BF6
:103A700007D1BB7D0133BB75BA7D7B7D9A42CDD327
:103A800000E000BF034B00221A76FB7D18461C376E
:103A9000BD46F0BD600B00200020024080B483B022
:103AA00000AF0023FB710D4B1B6903F08003002B5B
:103AB0000DD00A4B0A4A5A60084B0A4A5A60074B13
:103AC0001B6903F08003002B01D00123FB71FB79FC
:103AD00018460C37BD4680BC704700BF002002402E
:103AE00023016745AB89EFCD80B400AF054B1B695F
:103AF000044A43F08003136100231846BD4680BC8E
:103B0000704700BF0020024080B483B000AF7860EF
:103B10000B467B80084B0022DA61084B1B69074A81
:103B200043F0010313617B687A881A8000BF0C3769
:103B3000BD4680BC704700BF600B002000200240E3
:103B400080B584B000AF7860FFF74EFBF86010E0FE
:103B50007B68B3F1FF3F0CD07B68002B07D0FFF7E9
:103B600043FB0246FB68D31A7A689A4201D20323C8
:103B700025E0154BDB6803F00103002BE8D1124B65
:103B8000DB6803F02003002B02D00F4B2022DA6009
:103B90000D4BDB6803F01003002B0BD10A4BDB69E4
:103BA00003F00103002B05D1074BDB6803F004038E
:103BB000002B03D000F00AF8012300E00023184690
:103BC0001037BD4680BD00BF0020024080B483B0E6
:103BD00000AF00237B60234BDB6803F01003002B56
:103BE00009D0214BDB6943F002031F4AD3617B6894
:103BF00043F010037B601B4BDB6803F00403002BD6
:103C000009D0194BDB6943F00103174AD3617B6884
:103C100043F004037B60134BDB6903F00103002BCB
:103C20000BD0114BDB6943F004030F4AD3610D4BFA
:103C3000DB690C4A23F00103D3617B6840F2011277
:103C4000934206D1074BDB69064A23F00103D36197
:103C500002E0044A7B68D36000BF0C37BD4680BCDD
:103C6000704700BF00200240600B002080B584B088
:103C700000AF786039600123FB730023BB602F4BDA
:103C80001B7E012B01D1022353E02C4B01221A761B
:103C90007B681B68022B16D14CF25030FFF750FFA7
:103CA0000346002B41D1012000F04CF84CF250307B
:103CB000FFF746FF0346FB73214B1B69204A23F0A5
:103CC0000403136131E04CF25030FFF739FF034633
:103CD000002B2AD13B684FF0FF321A607B689B684B
:103CE000BB6019E0B86800F049F84CF25030FFF7BB
:103CF00027FF0346FB73124B1B69114A23F0020393
:103D00001361FB7B002B03D03B68BA681A600CE0A0
:103D1000BB6803F50063BB607B68DB68DA027B6825
:103D20009B681344BA689A42DCD3044B00221A768B
:103D3000FB7B18461037BD4680BD00BF600B0020DE
:103D40000020024080B483B000AF7860094B0022AD
:103D5000DA61094B1B69084A43F004031361064BFF
:103D60001B69054A43F04003136100BF0C37BD4691
:103D700080BC7047600B00200020024080B483B0FC
:103D800000AF78600B4B0022DA610B4B1B690A4ACB
:103D900043F002031361084A7B685361064B1B69B9
:103DA000054A43F04003136100BF0C37BD4680BC99
:103DB000704700BF600B00200020024080B48BB031
:103DC00000AF7860396000237B6200233B6279E1B9
:103DD00001227B6A02FA03F3FB613B681B68FA6904
:103DE0001340BB61BA69FB699A4240F068813B6845
:103DF0005B68964A93425ED0944A934275D8944A3F
:103E0000934258D0924A93426FD8924A934252D0EA
:103E1000904A934269D8904A93424CD08E4A93423A
:103E200063D88E4A934246D08C4A93425DD8122B77
:103E30002AD8122B59D801A252F823F0B73E000815
:103E4000913E0008A33E0008E53E0008EB3E000856
:103E5000EB3E0008EB3E0008EB3E0008EB3E00089E
:103E6000EB3E0008EB3E0008EB3E0008EB3E00088E
:103E7000EB3E0008EB3E0008EB3E0008EB3E00087E
:103E8000993E0008AD3E0008754A934213D02CE0DD
:103E90003B68DB683B6229E03B68DB6804333B62DC
:103EA00024E03B68DB6808333B621FE03B68DB686B
:103EB0000C333B621AE03B689B68002B02D1042361
:103EC0003B6213E03B689B68012B05D108233B62F2
:103ED0007B68FA691A6109E008233B627B68FA692A
:103EE0005A6103E000233B6200E000BFBB69FF2B87
:103EF00001D87B6801E07B6804337B61BB69FF2BE1
:103F000002D87B6A9B0002E07B6A083B9B003B6116
:103F10007B691A680F213B6901FA03F3DB431A40FE
:103F2000396A3B6901FA03F31A437B691A603B68FB
:103F30005B6803F08053002B00F0C180494B9B6904
:103F4000484A43F001039361464B9B6903F0010328
:103F5000BB60BB68444A7B6A9B08023352F823303B
:103F6000FB607B6A03F003039B000F2202FA03F35A
:103F7000DB43FA681340FB607B683C4A93421FD0E6
:103F80007B683B4A934219D07B683A4A934213D0EC
:103F90007B68394A93420DD07B68384A934207D0F8
:103FA0007B68374A934201D105230AE0062308E0E3
:103FB000042306E0032304E0022302E0012300E0DF
:103FC00000237A6A02F0030292009340FA681343D6
:103FD000FB6025497B6A9B080233FA6841F823207D
:103FE0003B685B6803F48013002B06D0254B9A686E
:103FF0002449BB6913438B6006E0224B9A68BB6976
:10400000DB43204913408B603B685B6803F400137B
:10401000002B06D01B4BDA681A49BB691343CB60EF
:1040200006E0184BDA68BB69DB4316491340CB60E6
:104030003B685B6803F40033002B25D0114B5A68B2
:104040001049BB6913434B6025E000BF00003210EC
:10405000000031100000221000002110000012109A
:104060000000111000100240000001400008014053
:10407000000C0140001001400014014000180140F4
:10408000001C014000040140154B5A68BB69DB432A
:10409000134913404B603B685B6803F48033002B8B
:1040A00006D00F4B1A680E49BB6913430B6006E03C
:1040B0000B4B1A68BB69DB43094913400B607B6AF1
:1040C00001337B623B681A687B6A22FA03F3002B98
:1040D0007FF47EAE00BF00BF2C37BD4680BC70476A
:1040E0000004014080B483B000AF78600B467B8051
:1040F00013467B707B78002B03D07A887B681A612B
:1041000003E07B881A047B681A6100BF0C37BD4648
:1041100080BC704780B586B000AF78607B68002BAC
:1041200001D1012372E27B681B6803F00103002BBD
:1041300000F08780924B5B6803F00C03042B0CD0DB
:104140008F4B5B6803F00C03082B12D18C4B5B6820
:1041500003F48033B3F5803F0BD1894B1B6803F424
:104160000033002B6CD07B685B68002B68D1012387
:104170004CE27B685B68B3F5803F06D1804B1B68DF
:104180007F4A43F4803313602EE07B685B68002B2A
:104190000CD17B4B1B687A4A23F480331360784B35
:1041A0001B68774A23F4802313601DE07B685B68FB
:1041B000B3F5A02F0CD1724B1B68714A43F48023D6
:1041C00013606F4B1B686E4A43F4803313600BE03F
:1041D0006B4B1B686A4A23F480331360684B1B687F
:1041E000674A23F4802313607B685B68002B13D03D
:1041F000FEF7FAFF386108E0FEF7F6FF02463B697A
:10420000D31A642B01D9032300E25D4B1B6803F42E
:104210000033002BF0D014E0FEF7E6FF386108E031
:10422000FEF7E2FF02463B69D31A642B01D9032350
:10423000ECE1534B1B6803F40033002BF0D100E09A
:1042400000BF7B681B6803F00203002B63D04C4B5C
:104250005B6803F00C03002B0BD0494B5B6803F049
:104260000C03082B1CD1464B5B6803F48033002BF6
:1042700016D1434B1B6803F00203002B05D07B686B
:104280001B69012B01D00123C0E13D4B1B6823F0CA
:10429000F8027B685B69DB00394913430B603AE045
:1042A0007B681B69002B20D0364B01221A60FEF779
:1042B0009BFF386108E0FEF797FF02463B69D31A7F
:1042C000022B01D90323A1E12D4B1B6803F002034C
:1042D000002BF0D02A4B1B6823F0F8027B685B6947
:1042E000DB00274913430B6015E0264B00221A60C0
:1042F000FEF77AFF386108E0FEF776FF02463B6979
:10430000D31A022B01D9032380E11D4B1B6803F054
:104310000203002BF0D17B681B6803F00803002B1D
:104320003AD07B689B69002B19D0174B01221A6089
:10433000FEF75AFF386108E0FEF756FF02463B6978
:10434000D31A022B01D9032360E10D4B5B6A03F002
:104350000203002BF0D0012000F0FEFA1CE00A4B13
:1043600000221A60FEF740FF38610FE0FEF73CFFC5
:1043700002463B69D31A022B08D9032346E100BF4A
:10438000001002400000424280044242924B5B6AAD
:1043900003F00203002BE9D17B681B6803F00403E0
:1043A000002B00F0A6800023FB758B4BDB6903F02C
:1043B0008053002B0DD1884BDB69874A43F0805333
:1043C000D361854BDB6903F08053BB60BB6801237D
:1043D000FB75824B1B6803F48073002B18D17F4B55
:1043E0001B687E4A43F480731360FEF7FDFE38615C
:1043F00008E0FEF7F9FE02463B69D31A642B01D9A7
:10440000032303E1754B1B6803F48073002BF0D08A
:104410007B68DB68012B06D16F4B1B6A6E4A43F049
:10442000010313622DE07B68DB68002B0CD16A4B23
:104430001B6A694A23F001031362674B1B6A664AD1
:1044400023F0040313621CE07B68DB68052B0CD1AE
:10445000614B1B6A604A43F0040313625E4B1B6AA4
:104460005D4A43F0010313620BE05B4B1B6A5A4A3F
:1044700023F001031362584B1B6A574A23F00403CD
:1044800013627B68DB68002B15D0FEF7ADFE386148
:104490000AE0FEF7A9FE02463B69D31A41F28832D0
:1044A000934201D90323B1E04B4B1B6A03F0020393
:1044B000002BEED014E0FEF797FE38610AE0FEF71D
:1044C00093FE02463B69D31A41F28832934201D9E6
:1044D00003239BE0404B1B6A03F00203002BEED149
:1044E000FB7D012B05D13C4BDB693B4A23F080531C
:1044F000D3617B68DB69002B00F08780364B5B68FB
:1045000003F00C03082B61D07B68DB69022B46D1DA
:10451000334B00221A60FEF767FE386108E0FEF7B1
:1045200063FE02463B69D31A022B01D903236DE0D7
:10453000294B1B6803F00073002BF0D17B681B6ACA
:10454000B3F5803F08D1244B5B6823F400327B68CD
:104550009B68214913434B601F4B5B6823F4741223
:104560007B68196A7B685B6A0B431B4913434B608A
:104570001B4B01221A60FEF737FE386108E0FEF798
:1045800033FE02463B69D31A022B01D903233DE0D7
:10459000114B1B6803F00073002BF0D035E0104B7B
:1045A00000221A60FEF720FE386108E0FEF71CFECC
:1045B00002463B69D31A022B01D9032326E0064B9E
:1045C0001B6803F00073002BF0D11EE07B68DB69F1
:1045D000012B07D1012319E00010024000700040B8
:1045E000600042420B4B5B68FB60FB6803F4803267
:1045F0007B681B6A9A4206D1FB6803F470127B68E1
:104600005B6A9A4201D0012300E000231846183764
:10461000BD4680BD0010024080B584B000AF786018
:1046200039607B68002B01D10123D0E06A4B1B6805
:1046300003F007033A689A4210D9674B1B6823F0CE
:10464000070265493B6813430B60634B1B6803F02B
:1046500007033A689A4201D00123B8E07B681B68DF
:1046600003F00203002B20D07B681B6803F00403D7
:10467000002B05D0594B5B68584A43F4E063536004
:104680007B681B6803F00803002B05D0534B5B6865
:10469000524A43F460535360504B5B6823F0F0027E
:1046A0007B689B684D4913434B607B681B6803F034
:1046B0000103002B40D07B685B68012B07D1474B7F
:1046C0001B6803F40033002B15D101237FE07B68C6
:1046D0005B68022B07D1414B1B6803F00073002B72
:1046E00009D1012373E03D4B1B6803F00203002B4B
:1046F00001D101236BE0394B5B6823F003027B6837
:104700005B68364913434B60FEF76EFDF8600AE0C4
:10471000FEF76AFD0246FB68D31A41F288329342E3
:1047200001D9032353E02D4B5B6803F00C027B6837
:104730005B689B009A42EBD1274B1B6803F0070391
:104740003A689A4210D2244B1B6823F00702224990
:104750003B6813430B60204B1B6803F007033A6868
:104760009A4201D0012332E07B681B6803F0040306
:10477000002B08D0194B5B6823F4E0627B68DB6890
:10478000164913434B607B681B6803F00803002B3A
:1047900009D0124B5B6823F460527B681B69DB0015
:1047A0000E4913434B6000F021F802460B4B5B6847
:1047B0001B0903F00F030A49CB5C22FA03F3094AF1
:1047C0001360094B1B681846FEF7E4FB00231846EC
:1047D0001037BD4680BD00BF0020024000100240DF
:1047E000148400089C030020A003002080B487B03C
:1047F00000AF0023FB600023BB6000237B6100232C
:104800007B6000233B611E4B5B68FB60FB6803F031
:104810000C03042B02D0082B03D027E0194B3B617B
:1048200027E0FB689B0C03F00F03174AD35C7B6007
:10483000FB6803F48033002B10D0114B5B685B0CDA
:1048400003F00103114AD35CBB607B680D4A03FB94
:1048500002F2BB68B2FBF3F37B6104E07B680C4AB5
:1048600002FB03F37B617B693B6102E0054B3B612B
:1048700000BF3B6918461C37BD4680BC704700BF6F
:104880000010024000127A002C8400083C840008CA
:1048900000093D0080B400AF024B1B681846BD46BE
:1048A00080BC70479C03002080B500AFFFF7F2FF8B
:1048B0000246054B5B681B0A03F007030349CB5C08
:1048C00022FA03F3184680BD001002402484000839
:1048D00080B500AFFFF7DEFF0246054B5B68DB0AE1
:1048E00003F007030349CB5C22FA03F3184680BDAB
:1048F000001002402484000880B483B000AF7860C8
:1049000039607B680F221A60114B5B6803F0030269
:104910007B685A600E4B5B6803F0F0027B689A601C
:104920000B4B5B6803F4E0627B68DA60084B5B6802
:10493000DB0803F4E0627B681A61064B1B6803F036
:1049400007023B681A6000BF0C37BD4680BC704749
:10495000001002400020024080B485B000AF7860B3
:104960000A4B1B680A4AA2FB03235B0A7A6802FB14
:1049700003F3FB6000BFFB685A1EFA60002BF9D1FD
:1049800000BF00BF1437BD4680BC70479C030020A9
:10499000D34D621080B582B000AF78607B68002B89
:1049A00001D1012341E07B6893F83D30DBB2002B5D
:1049B00006D17B68002283F83C20786800F039F843
:1049C0007B68022283F83D207B681A687B68043389
:1049D0001946104600F0C2F97B68012283F8462090
:1049E0007B68012283F83E207B68012283F83F2008
:1049F0007B68012283F840207B68012283F84120F4
:104A00007B68012283F842207B68012283F84320DF
:104A10007B68012283F844207B68012283F84520CB
:104A20007B68012283F83D20002318460837BD46E5
:104A300080BD80B483B000AF786000BF0C37BD4646
:104A400080BC704780B485B000AF78607B6893F815
:104A50003D30DBB2012B01D0012344E07B68022210
:104A600083F83D207B681B68DA687B681B6842F02E
:104A70000102DA607B681B681D4A934218D07B688C
:104A80001B681C4A934213D07B681B68B3F1804FAC
:104A90000ED07B681B68184A934209D07B681B685C
:104AA000164A934204D07B681B68154A934211D181
:104AB0007B681B689B6803F00703FB60FB68062BA1
:104AC00010D07B681B681A687B681B6842F0010283
:104AD0001A6007E07B681B681A687B681B6842F0F5
:104AE00001021A60002318461437BD4680BC704787
:104AF000002C014000340140000400400008004048
:104B0000000C004080B582B000AF78607B681B6805
:104B10001B6903F00203022B22D17B681B68DB6850
:104B200003F00203022B1BD17B681B686FF00202AB
:104B30001A617B6801221A777B681B689B6903F006
:104B40000303002B03D0786800F0EDF805E07868E7
:104B500000F0E0F8786800F0EFF87B6800221A7740
:104B60007B681B681B6903F00403042B22D17B685C
:104B70001B68DB6803F00403042B1BD17B681B68F4
:104B80006FF004021A617B6802221A777B681B6847
:104B90009B6903F44073002B03D0786800F0C3F8DE
:104BA00005E0786800F0B6F8786800F0C5F87B6832
:104BB00000221A777B681B681B6903F00803082B27
:104BC00022D17B681B68DB6803F00803082B1BD12C
:104BD0007B681B686FF008021A617B6804221A77F1
:104BE0007B681B68DB6903F00303002B03D0786844
:104BF00000F099F805E0786800F08CF8786800F02B
:104C00009BF87B6800221A777B681B681B6903F09E
:104C10001003102B22D17B681B68DB6803F01003A4
:104C2000102B1BD17B681B686FF010021A617B6828
:104C300008221A777B681B68DB6903F44073002B3A
:104C400003D0786800F06FF805E0786800F062F84B
:104C5000786800F071F87B6800221A777B681B681F
:104C60001B6903F00103012B0ED17B681B68DB6815
:104C700003F00103012B07D17B681B686FF0010271
:104C80001A617868FDF7B0FB7B681B681B6903F04D
:104C90008003802B0ED17B681B68DB6803F08003E8
:104CA000802B07D17B681B686FF080021A617868DF
:104CB00000F0D7F87B681B681B6903F04003402BAA
:104CC0000ED17B681B68DB6803F04003402B07D1E3
:104CD0007B681B686FF040021A61786800F035F855
:104CE0007B681B681B6903F02003202B0ED17B68B7
:104CF0001B68DB6803F02003202B07D17B681B684F
:104D00006FF020021A61786800F0A2F800BF08373F
:104D1000BD4680BD80B483B000AF786000BF0C3763
:104D2000BD4680BC704780B483B000AF786000BFE0
:104D30000C37BD4680BC704780B483B000AF78604C
:104D400000BF0C37BD4680BC704780B483B000AF55
:104D5000786000BF0C37BD4680BC704780B485B01A
:104D600000AF786039607B681B68FB607B68334A02
:104D7000934213D07B68324A93420FD07B68B3F1E1
:104D8000804F0BD07B682F4A934207D07B682E4A16
:104D9000934203D07B682D4A934208D1FB6823F0ED
:104DA0007003FB603B685B68FA681343FB607B68D9
:104DB000224A934213D07B68214A93420FD07B68EA
:104DC000B3F1804F0BD07B681E4A934207D07B68BB
:104DD0001D4A934203D07B681C4A934208D1FB686A
:104DE00023F44073FB603B68DB68FA681343FB60A5
:104DF000FB6823F080023B685B691343FB607B68C0
:104E0000FA681A603B689A687B68DA623B681A68DD
:104E10007B689A627B68094A934203D07B68084AA0
:104E2000934203D13B681A697B681A637B6801224D
:104E30005A6100BF1437BD4680BC7047002C01404A
:104E4000003401400004004000080040000C004015
:104E500080B483B000AF786000BF0C37BD4680BC23
:104E6000704780B483B000AF786000BF0C37BD4698
:104E700080BC704780B582B000AF78607B68002B43
:104E800001D1012342E07B6893F84130DBB2002B73
:104E900006D17B68002283F840207868FEF706F888
:104EA0007B68242283F841207B681B68DA687B6872
:104EB0001B6822F40052DA60786800F0AFF97B6872
:104EC0001B681A697B681B6822F490421A617B6830
:104ED0001B685A697B681B6822F02A025A617B684A
:104EE0001B68DA687B681B6842F40052DA607B68F2
:104EF00000225A647B68202283F841207B682022AC
:104F000083F842207B6800225A6300231846083742
:104F1000BD4680BD80B58AB002AFF860B9603B6025
:104F20001346FB8000237B61FB6893F84130DBB2C2
:104F3000202B6DD1BB68002B02D0FB88002B01D148
:104F4000012366E0FB6800225A64FB68212283F893
:104F50004120FEF749F97861FB68FA889A84FB687A
:104F6000FA88DA84FB689B68B3F5805F08D1FB6838
:104F70001B69002B04D10023FB61BB68BB6103E00C
:104F8000BB68FB610023BB612AE03B6800937B693F
:104F900000228021F86800F0D2F80346002B01D0EF
:104FA000032336E0FB69002B0BD1BB691B881A4633
:104FB000FB681B68C2F308025A60BB690233BB611D
:104FC00007E0FB691A78FB681B685A60FB690133CC
:104FD000FB61FB68DB8C9BB2013B9AB2FB68DA8415
:104FE000FB68DB8C9BB2002BCFD13B6800937B69C5
:104FF00000224021F86800F0A2F80346002B01D0FF
:10500000032306E0FB68202283F84120002300E010
:10501000022318462037BD4680BD80B58AB002AF56
:10502000F860B9603B601346FB8000237B61FB683E
:1050300093F84230DBB2202B7CD1BB68002B02D02E
:10504000FB88002B01D1012375E0FB6800225A6424
:10505000FB68222283F84220FB6800221A63FEF7D5
:10506000C3F87861FB68FA889A85FB68FA88DA8564
:10507000FB689B68B3F5805F08D1FB681B69002B58
:1050800004D10023FB61BB68BB6103E0BB68FB612B
:105090000023BB6143E03B6800937B690022202131
:1050A000F86800F04CF80346002B01D0032342E0DF
:1050B000FB69002B0CD1FB681B685B689BB2C3F3D8
:1050C00008039AB2BB691A80BB690233BB611FE057
:1050D000FB689B68B3F5805F07D0FB689B68002B7B
:1050E0000AD1FB681B69002B06D1FB681B685B6853
:1050F000DAB2FB691A7008E0FB681B685B68DBB218
:1051000003F07F03DAB2FB691A70FB690133FB61BC
:10511000FB68DB8D9BB2013B9AB2FB68DA85FB68CA
:10512000DB8D9BB2002BB6D1FB68202283F8422096
:10513000002300E0022318462037BD4680BD80B51D
:1051400090B000AFF860B9603B601346FB7150E06F
:10515000BB6CB3F1FF3F4CD0BB6C002B07D0FEF70C
:1051600043F802463B68D31ABA6C9A4241D2FB68B4
:105170001B680C33BB62BB6A53E8003F7B627B6AEF
:1051800023F4D073FB63FB681B680C33FA6B7A6300
:105190003B63396B7A6B41E80023FB62FB6A002BAF
:1051A000E5D1FB681B6814337B617B6953E8003FE2
:1051B0003B613B6923F00103BB63FB681B6814334D
:1051C000BA6B3A62FB61F9693A6A41E80023BB6154
:1051D000BB69002BE5D1FB68202283F84120FB68E6
:1051E000202283F84220FB68002283F8402003231A
:1051F0000FE0FB681B681A68BB681340BA689A42E4
:105200000CBF01230023DBB21A46FB799A429FD0E0
:10521000002318464037BD4680BD000080B584B0ED
:1052200000AF78607B681B681B6923F440517B6882
:10523000DA687B681B680A431A617B689A687B6836
:105240001B691A437B685B691343BB607B681B68FF
:10525000DB6823F4B05323F00C037A681268B96852
:105260000B43D3607B681B685B6923F440717B68E8
:105270009A697B681B680A435A617B681B682C4AE1
:10528000934203D1FFF724FBF86002E0FFF70CFB29
:10529000F860FA6813469B0013449A001A447B682E
:1052A0005B689B00B2FBF3F3224AA2FB03235B097A
:1052B0001901FA6813469B0013449A001A447B684C
:1052C0005B689B00B2FBF3F21A4BA3FB02035B0982
:1052D000642000FB03F3D31A1B013233154AA2FBEF
:1052E00003235B0903F0F0031944FA6813469B009B
:1052F00013449A001A447B685B689B00B2FBF3F28C
:105300000C4BA3FB02035B09642000FB03F3D31ADD
:105310001B013233074AA2FB03235B0903F00F0290
:105320007B681B680A449A6000BF1037BD4680BD89
:10533000003801401F85EB5180B485B000AF0346B3
:10534000FB800023FB60B7F90630842B05D0B7F94A
:105350000620FB6813440333FB60FB6818461437D0
:10536000BD4680BC704780B500AF00F03BFF002316
:10537000184680BDF0B589B004AF786039607B68AD
:105380005B69002B20D07B689B69002B1CD07B685D
:105390005C687B681D687B681E697B68B3F90830B0
:1053A0001846FFF7C9FF01467B685B697A68926916
:1053B0000292019300913B6832462946204600F054
:1053C00035FD0346FB601CE07B685C687B681D68FC
:1053D0007B681B699EB27B68B3F908301846FFF7FB
:1053E000ABFF024607F10C03019300923B68324683
:1053F0002946204600F079FD0346012B01D0002309
:1054000000E0FB6818461437BD46F0BD90B585B086
:1054100002AF786039607B689B68002B11D07B6895
:10542000DB68002B0DD07B6818687B6859687B6847
:105430009A687B68DB680024009400F029F9034631
:1054400008E07B6818687B685B680022194600F0FA
:105450009BF9034618460C37BD4690BD80B483B017
:1054600000AF78607B6803F108027B685A607B6854
:105470004FF0FF329A607B6803F108027B68DA60C4
:105480007B6803F108027B681A617B6800221A605E
:1054900000BF0C37BD4680BC704780B483B000AFFE
:1054A00078607B6800221A6100BF0C37BD4680BC63
:1054B000704780B485B000AF786039607B685B6806
:1054C000FB603B68FA685A60FB689A683B689A60C0
:1054D000FB689B683A685A60FB683A689A603B6868
:1054E0007A681A617B681B685A1C7B681A6000BF67
:1054F0001437BD4680BC704780B485B000AF78607B
:1055000039603B681B68BB60BB68B3F1FF3F03D1E8
:105510007B681B69FB600CE07B680833FB6002E082
:10552000FB685B68FB60FB685B681B68BA689A4253
:10553000F6D2FB685A683B685A603B685B683A6819
:105540009A603B68FA689A60FB683A685A603B6800
:105550007A681A617B681B685A1C7B681A6000BFF6
:105560001437BD4680BC704780B485B000AF78600A
:105570007B681B69FB607B685B687A6892689A60ED
:105580007B689B687A6852685A60FB685B687A68D7
:105590009A4203D17B689A68FB685A607B68002254
:1055A0001A61FB681B685A1EFB681A60FB681B685F
:1055B00018461437BD4680BC7047000080B584B0E3
:1055C00000AF786039607B68FB60FB68002B0BD113
:1055D0004FF0500383F31188BFF36F8FBFF34F8FEA
:1055E000BB6000BF00BFFDE701F020FCFB681A684C
:1055F000FB68DB6BF968096C01FB03F31A44FB6879
:105600005A60FB6800229A63FB681A68FB689A601C
:10561000FB681A68FB68DB6B013BF968096C01FBEE
:1056200003F31A44FB68DA60FB68FF2283F8442026
:10563000FB68FF2283F845203B68002B14D1FB68F0
:105640001B69002B1AD0FB681033184601F026F8AE
:105650000346002B12D00D4B4FF080521A60BFF35F
:105660004F8FBFF36F8F09E0FB6810331846FFF7C9
:10567000F5FEFB6824331846FFF7F0FE01F006FC48
:10568000012318461037BD4680BD00BF04ED00E081
:1056900080B58EB002AFF860B9607A603B60FB689D
:1056A000002B0BD14FF0500383F31188BFF36F8FA2
:1056B000BFF34F8FBB6200BF00BFFDE73B68002B0D
:1056C0000BD14FF0500383F31188BFF36F8FBFF3FB
:1056D0004F8F7B6200BF00BFFDE77B68002B02D0CD
:1056E000BB68002B01D0012300E00023002B0BD16D
:1056F0004FF0500383F31188BFF36F8FBFF34F8FC9
:105700003B6200BF00BFFDE77B68002B02D1BB6896
:10571000002B01D1012300E00023002B0BD14FF01F
:10572000500383F31188BFF36F8FBFF34F8FFB617B
:1057300000BF00BFFDE748237B617B69482B0BD08E
:105740004FF0500383F31188BFF36F8FBFF34F8F78
:10575000BB6100BF00BFFDE73B68FB62FB6A002B3B
:105760000DD0FB6A012283F8462097F83820FB6AA7
:10577000009313467A68B968F86800F044F8FB6A49
:1057800018463037BD4680BD80B58AB002AFF8609C
:10579000B9601346FB71FB68002B0BD14FF050032F
:1057A00083F31188BFF36F8FBFF34F8F3B6100BF4F
:1057B00000BFFDE7BB68002B02D10023FB6104E0C2
:1057C000FB68BA6802FB03F3FB61FB6948331846C8
:1057D00001F0EEFBB861BB69002B0FD0BB69483309
:1057E0007B61BB69002283F84620FA79BB6900938C
:1057F00013467A69B968F86800F005F8BB6918467D
:105800002037BD4680BD80B584B000AFF860B96078
:105810007A60FB70BB68002B03D1BB69BA691A6060
:1058200002E0BB697A681A60BB69FA68DA63BB692F
:10583000BA681A640121B869FFF7C0FE00BF1037CB
:10584000BD4680BD80B58EB000AFF860B9607A60AB
:105850003B6000237B63FB683B633B6B002B0BD1FE
:105860004FF0500383F31188BFF36F8FBFF34F8F57
:10587000BB6200BF00BFFDE7BB68002B03D13B6BE1
:105880001B6C002B01D1012300E00023002B0BD166
:105890004FF0500383F31188BFF36F8FBFF34F8F27
:1058A0007B6200BF00BFFDE73B68022B03D13B6B6F
:1058B000DB6B012B01D1012300E00023002B0BD176
:1058C0004FF0500383F31188BFF36F8FBFF34F8FF7
:1058D0003B6200BF00BFFDE701F0AAF80346002BC2
:1058E00002D17B68002B01D1012300E00023002BB3
:1058F0000BD14FF0500383F31188BFF36F8FBFF3C9
:105900004F8FFB6100BF00BFFDE701F08FFA3B6BDB
:105910009A6B3B6BDB6B9A4202D33B68022B29D11B
:105920003A68B968386B00F071F9F8623B6B5B6AF2
:10593000002B10D03B6B2433184600F0AFFE03461B
:10594000002B13D03F4B4FF080521A60BFF34F8FA4
:10595000BFF36F8F0AE0FB6A002B07D0394B4FF083
:1059600080521A60BFF34F8FBFF36F8F01F08EFA32
:10597000012363E07B68002B03D101F087FA002349
:105980005CE07B6B002B06D107F11403184600F096
:10599000E9FE01237B6301F079FA00F08DFC01F050
:1059A00045FA3B6B93F844305BB2B3F1FF3F03D150
:1059B0003B6B002283F844203B6B93F845305BB28D
:1059C000B3F1FF3F03D13B6B002283F8452001F088
:1059D0005DFA3A1D07F114031146184600F0D8FE8F
:1059E0000346002B24D1386B00F008FA0346002B45
:1059F00018D03B6B10337A681146184600F028FE29
:105A0000386B00F093F900F065FC0346002B7FF43F
:105A10007CAF0C4B4FF080521A60BFF34F8FBFF337
:105A20006F8F72E7386B00F081F900F053FC6CE780
:105A3000386B00F07BF900F04DFC00231846383736
:105A4000BD4680BD04ED00E080B58CB000AFF860CD
:105A5000B9607A600023FB62FB68BB62BB6A002B03
:105A60000BD14FF0500383F31188BFF36F8FBFF357
:105A70004F8F3B6200BF00BFFDE7BB68002B03D127
:105A8000BB6A1B6C002B01D1012300E00023002B1B
:105A90000BD14FF0500383F31188BFF36F8FBFF327
:105AA0004F8FFB6100BF00BFFDE700F0C1FF034661
:105AB000002B02D17B68002B01D1012300E00023E1
:105AC000002B0BD14FF0500383F31188BFF36F8F7E
:105AD000BFF34F8FBB6100BF00BFFDE701F0A6F928
